:100000000C9438000C9460000C9460000C94600018
:100010000C9460000C9460000C9460000C946000E0
:100020000C9460000C9460000C9460000C946000D0
:100030000C9460000C9460000C9460000C946000C0
:100040000C9461010C9460000C9460000C946000AE
:100050000C9460000C9460000C9460000C946000A0
:100060000C9460000C94600062006D008400DD0060
:1000700011241FBECFEFD8E0DEBFCDBF11E0A0E05E
:10008000B1E0E0E2F4E002C005900D92A630B107C5
:10009000D9F721E0A6E0B1E001C01D92A732B20776
:1000A000E1F710E0C8E3D0E004C02197FE010E9410
:1000B0000802C433D107C9F70E9479000C940E02DC
:1000C0000C9400000F9300E020E040E060E086E048
:1000D00091E00E94D1000F9108950F9300E020E07D
:1000E00040E060E08CE091E00E94D1000F91089523
:1000F00008950E94AB010E947800C0E0D0E02097F4
:10010000F1F30E940000FBCF0F9300E020E040E0FD
:1001100060E082E191E00E94D1000F9108958F92FA
:100120009F92AF92BF92CF92DF92EF92FF920F9386
:100130001F93CF93DF937C018B016C0182E0C80E8B
:10014000D11C4701E5E08E0E911CC0E0D0E0F60125
:1001500061916F014AE050E0C8010E945A015C01C0
:100160006EE2C8010E94FD008A0D9B1DC80FD91FB9
:10017000C814D90461F74AE050E0F7016581C8016D
:100180000E945A018C0F9D1FDF91CF911F910F91FB
:10019000FF90EF90DF90CF90BF90AF909F908F90A7
:1001A00008950F93FC0184E091E091838083628342
:1001B0004383248305830F910895E8E1F1E084E00F
:1001C00091E09183808312821382148215820895B4
:1001D0006115710579F0FB0101900020E9F7319775
:1001E000AF01461B570BDC01ED91FC910280F381BE
:1001F000E02D099480E090E00895DC01ED91FC9100
:100200000190F081E02D09944F925F926F927F925E
:10021000EF92FF920F931F93CF93DF93CDB7DEB78B
:10022000A1970FB6F894DEBF0FBECDBF7C01FA01D7
:10023000CB0119A2223008F42AE08E010F5D1F4F76
:10024000422E512C612C712CBF01A30192010E94FE
:10025000E601F901CA01015011096A3014F4605D28
:1002600001C0695CD8016C93232B242B252B61F7EB
:10027000B801C7010E94E800A1960FB6F894DEBF4E
:100280000FBECDBFDF91CF911F910F91FF90EF90E7
:100290007F906F905F904F9008952115310541F444
:1002A000DC01ED91FC910190F081E02D642F099427
:1002B0000C9404019A01462F50E060E070E00C9429
:1002C0004D011F920F920FB60F9211242F933F935F
:1002D0008F939F93AF93BF9380911F0190912001C3
:1002E000A0912101B091220130911E0123E0230F42
:1002F0002D3720F40196A11DB11D05C026E8230F5E
:100300000296A11DB11D20931E0180931F019093A1
:100310002001A0932101B0932201809123019091AB
:100320002401A0912501B09126010196A11DB11DC6
:100330008093230190932401A0932501B09326017B
:10034000BF91AF919F918F913F912F910F900FBED1
:100350000F901F901895789484B5826084BD84B501
:10036000816084BD85B5826085BD85B5816085BDB0
:10037000EEE6F0E0808181608083E1E8F0E01082C9
:10038000808182608083808181608083E0E8F0E00A
:10039000808181608083E1EBF0E0808184608083F4
:1003A000E0EBF0E0808181608083EAE7F0E080812B
:1003B000846080838081826080838081816080838B
:1003C0008081806880831092C1000895A1E21A2E76
:1003D000AA1BBB1BFD010DC0AA1FBB1FEE1FFF1FE9
:1003E000A217B307E407F50720F0A21BB30BE40B39
:1003F000F50B661F771F881F991F1A9469F7609580
:100400007095809590959B01AC01BD01CF01089539
:10041000EE0FFF1F0590F491E02D0994F894FFCFA3
:06042000000000008F0047
:00000001FF
